:020000040000FA
:1000000070030020AD0000007508000065080000C6
:10001000FFFFFFFFFFFFFFFFFFFFFFFFFFFFFFFFF0
:10002000FFFFFFFFFFFFFFFFFFFFFFFF05090000CE
:10003000FFFFFFFFFFFFFFFFAD0800009D0900006D
:1000400021010000FFFFFFFF21010000210100004E
:100050003D040000A50400000D050000FFFFFFFFA8
:1000600021010000FFFFFFFFFFFFFFFFFFFFFFFF7A
:1000700021010000CD080000E9080000FFFFFFFF9C
:10008000FFFFFFFFB1020000FFFFFFFF21010000A3
:10009000FFFFFFFF21010000FFFFFFFF2101000024
:1000A000FFFFFFFF21010000FFFFFFFF1D4880470A
:1000B0001D4880471D4800471D480169002908D197
:1000C0004169002905D18169002902D1C16900294E
:1000D00009D01848C1680901090D00290ED0052969
:1000E0000CD006290AD0BFF34F8F13481349016083
:1000F00013491248C860BFF34F8FFEE70E480168EE
:100100000E48884200D070470E480F4901600A48E7
:100110000E4901607047FEE7FEE7FEE7FEE7FEE7F7
:10012000FEE70000B9000000AD0900005101000029
:100130000003084080010840000000200400FA0588
:1001400000ED00E000810840010000000000000018
:100150000448854600F01EF800480047651400007A
:10016000C046C0467003002030B50B460146002053
:100170002022012409E00D46D5409D4205D31D46AD
:100180009540491B2546954040191546521E002DA5
:10019000F1DC30BD064C0125064E05E0E36807CCD6
:1001A0002B430C3C98471034B442F7D3FFF7D4FFED
:1001B0006C1D00008C1D000080220029016801D008
:1001C000114300E091430160704789000818006BFB
:1001D00080B27047930810B59B00181843689207C7
:1001E000D20E1F249440A34391400B43436010BDA3
:1001F0005B1E12021B04FF3A013A13430B430168D2
:10020000802211400B43036070470A06120F0267F9
:1002100041677047016270470029416F02D0012297
:10022000114301E0490849004167704710B50022B9
:10023000072802D901220838C0B29300054A9A184B
:10024000136880000F248440A34381401943116048
:1002500010BD000000200240F0B596460A46134942
:10026000C000461800230025FF2098402C4610426D
:1002700016D00020012199408C461146C1406746A6
:10028000394206D087000F21B9400D437146B9406D
:100290000C43401C0828F0D33068A843204330604A
:1002A0000833361D082BDEDDF0BD000020200240A3
:1002B00010B5034800F008F802484068804710BDB8
:1002C000006007402C000020416849084900416057
:1002D000BFF34F8F704704220029016801D01143FA
:1002E00000E09143016070470029016802D00122BB
:1002F000114301E0490849000160704702220029CA
:10030000016801D0114300E0914301607047C16072
:10031000704781607047000010B50320CF210004B2
:100320000902024A012300F069F810BD0001013101
:1003300070B5144D0446686B43075B0F00F026F858
:100340002060012B07D01048022B04D0032B02D0D1
:10035000072B06D000206060296A052904D34009D4
:1003600003E07D200002F6E7C840A060A96A4903C7
:10037000490F072902D0C840E06070BD0321FFF794
:10038000F3FEF9E70080084000127A000C49086883
:10039000C869C20F4868400AC007C00F0ED009489C
:1003A000002A0BD18869C00D0007000F00D1102072
:1003B0008969044A4902890F5043C84070470000C8
:1003C0000080084000127A001FB541090A4A8900DE
:1003D0008A1800212E2800D10221C006C00E126802
:1003E000032383401A40C24054186846FFF7A0FF19
:1003F000029804B0E04010BD38800840F0B5084FC6
:100400007C6AFD6A3E6B84438D439643002B02D089
:1004100004430D4316437C62FD623E63F0BD000061
:100420000080084004498A6A07231B049A43000499
:1004300002438A62704700000080084070B50021C6
:10044000084600F07BF9164C002804D0206880474D
:10045000002000F06BF90121002000F06FF9104D31
:100460004035002804D028688047002000F05EF95D
:100470000021012000F062F9002804D06068804764
:10048000012000F053F90121084600F057F9002837
:1004900004D068688047012000F048F970BD000072
:1004A0005000002070B50021022000F047F9164CE2
:1004B000002804D0A0688047022000F037F901210D
:1004C000022000F03BF9104D4035002804D0A86808
:1004D0008047022000F02AF90021032000F02EF9C5
:1004E000002804D0E0688047032000F01FF90121B4
:1004F000032000F023F9002804D0E8688047032097
:1005000000F014F970BD00005000002070B500210B
:10051000042000F013F9844C002804D0206980479F
:10052000042000F003F90121042000F007F97E4DBA
:100530004035002804D028698047042000F0F6F8F0
:100540000021052000F0FAF8002804D060698047F7
:10055000052000F0EBF80121052000F0EFF800285D
:1005600004D068698047052000F0E0F800210620EB
:1005700000F0E4F8002804D0A0698047062000F0CD
:10058000D5F80121062000F0D9F8002804D0A86988
:100590008047062000F0CAF80021072000F0CEF8BE
:1005A000002804D0E0698047072000F0BFF801214F
:1005B000072000F0C3F8002804D0E869804707202E
:1005C00000F0B4F80021082000F0B8F8002804D0AA
:1005D000206A8047082000F0A9F80121082000F0D7
:1005E000ADF8002804D0286A8047082000F09EF863
:1005F0000021092000F0A2F8002804D0606A80479A
:10060000092000F093F80121092000F097F8002854
:1006100004D0686A8047092000F088F800210A2089
:1006200000F08CF8002804D0A06A80470A2000F06F
:100630007DF801210A2000F081F8002804D0A86A82
:1006400080470A2000F072F800210B2000F076F8B5
:10065000002804D0E06A80470B2000F067F80121F1
:100660000B2000F06BF8002804D0E86A80470B20CC
:1006700000F05CF800210C2000F060F8002804D0A5
:10068000206B80470C2000F051F801210C2000F075
:1006900055F8002804D0286B80470C2000F046F85D
:1006A00000210D2000F04AF8002804D0606B80473C
:1006B0000D2000F03BF801210D2000F03FF800284C
:1006C00004D0686B80470D2000F030F800210E2028
:1006D00000F034F8002804D0A06B80470E2000F012
:1006E00025F801210E2000F029F8002804D0A86B7D
:1006F00080470E2000F01AF800210F2000F01EF8AD
:10070000002804D0E06B80470F2000F00FF8012193
:100710000F2000F013F8002804D0E86B80470F206A
:1007200000F004F870BD000050000020012181405D
:1007300001484160816070474040024010B5084A5E
:10074000536801248440234207D09268C240D007F6
:10075000C00F884201D0012010BD002010BD000054
:10076000404002400179027AC90712071143C2884A
:1007700000681143024A8000801801607047000041
:1007800000400240002A026801D00A4300E08A4388
:1007900002607047F0B5002425462346CE0706D0F8
:1007A0005E001746B7403C430327B7403D43490826
:1007B0005B1C102BF2D34169A9434161416921437C
:1007C0004161F0BD002A426801D00A4300E08A433B
:1007D00042607047002A08D0012A09D082688A4303
:1007E0008260C2688A43C260704782680A43F7E742
:1007F000C2680A43C26082688A4382607047C069E7
:10080000084000D001207047002A01D041627047A3
:100810008162704770B50D461149000144180020EF
:100820001121890201230246FFF7E8FD227AE188BF
:100830002079FFF711FDA27BA189A07AFFF70CFDBB
:100840002946206800F0A0F901220021206800F06C
:10085000C5F901221146206800F0C0F970BD000002
:100860005C1D0000024801680029FCD070470000B0
:1008700024000020704710B50021084600F00CF855
:1008800010BD0000C106C90E012088400149086062
:100890007047000000E100E0024A114001430248B5
:1008A0008160704780FFFF1F00ED00E070470EB5CC
:1008B000E12040020090FF2001306946888000203E
:1008C000C88008814881FFF7A5FF0EBD10B5FF2144
:1008D0000131034800F0E8F802488068804710BD05
:1008E000004003402C00002010B5FF2101310348D7
:1008F00000F0DAF80248C068804710BD00400740A9
:100900002C000020704700000422044904280869D4
:1009100002D09043086170471043FBE700E000E01D
:1009200010B50420C043FFF7EFFF09487D2189017E
:100930000068FFF719FC00F02BF8012000F01CF80C
:10094000002000F007F8012000F004F810BD0000BE
:10095000D80000200749002806D00128086906D0E1
:1009600040084000086170470020886170470122FC
:100970001043F7E700E000E004490222002808697C
:1009800001D0104300E090430861704700E000E0B0
:10099000014948617047000000E000E0024801683A
:1009A000491C0160704700002C000020F0B5304861
:1009B0001027C7602F49012008602F48016B402491
:1009C000214301632D498A68272AFCD1416A032209
:1009D00092029143416241680122D2021143416077
:1009E0008168C908C907FBD04168C908C900C91C8A
:1009F0004160416B4907490F0329FAD1204B19681F
:100A0000C908C900491C19600025056242685915CA
:100A10008A43426006684A1016430660066BA64386
:100A200006630468144304600522D20582614268AB
:100A30000A43426081684908C907FBD01968C908A0
:100A4000C900891C196005624168C908C900491CB0
:100A50004160416B4907490F0129FAD119683943AF
:100A6000196041680122920291434160F0BD00008B
:100A700000810840008308400080084000A1064033
:100A80000002084001480068704700002C00002068
:100A900010B5036D490001248C40A3430365036D29
:100AA0008A401343036510BDC943C167BFF34F8F2D
:100AB0007047C943C167BFF34F8F70470029016971
:100AC00002D00122114301E0490849000161704749
:100AD00089000818903000687047803000687047BF
:100AE000002A426F01D00A4300E08A434267704700
:100AF000F0B50B7801259A0014182246403227469B
:100B000090375B009D40EE43056D35400565456DB2
:100B100035408E799E402E434665256CFF2608366B
:100B2000B543156015684E88354315604A893A60AB
:100B30008A89A0342260026D097999400A430265CE
:100B4000F0BD890008189030026070478030016065
:100B5000704780308160704702460B888032936016
:100B60004B885360026803231B049A4302600268A7
:100B700001231B069A43026002688B681A430260D5
:100B8000898981677047000070B505460C46C888A2
:100B900089886A68084321890E4B1A40114308432B
:100BA00061890843686001208007854206D11820CA
:100BB000FFF70AFC2168FFF7D7FA6862064885420A
:100BC00006D11C20FFF700FC2168FFF7CDFA686210
:100BD00070BD0000FCE0FFFF0010004010238B40C0
:100BE0004168002A01D0194300E0994341607047F1
:100BF00030B47446641E2578641CAB4200D21D4696
:100C0000635D5B00E31830BC184702E008C8121FA0
:100C100008C1002AFAD170477047002001E001C1E5
:100C2000121F002AFBD1704770B51A4C00212046D4
:100C3000FFF744FF0022A1152046FFF751FF0021D6
:100C40002046FFF783FF144DA86A0126134C0128A4
:100C50000DD126600021082000F008FB2068401C10
:100C600020600228F6DD0021042000F0FFFAA86AC7
:100C700000280DD126600021102000F0F7FA20682E
:100C8000401C20600228F6DD0021022000F0EEFA70
:100C900070BD0000004003401C010020D400002073
:100CA00010B50B4A0C46002806D0012806D00228B1
:100CB0000BD00020C04310BD002100E001211046F0
:100CC000FFF783FA2060002010BD0221F7E7000043
:100CD0000000014008B569460220FFF7E1FFFF214F
:100CE000009892314843000B08BD000008B56946E2
:100CF0000020FFF7D5FF1349086800280BD0009AA1
:100D00001018400808601049884206DC0F49081A8C
:100D10000D496D3108E00098F4E7372292019042C6
:100D200005DC0B49081A0B494843801308BD0A4AE1
:100D3000904205DC08491131081A03491539F3E7D7
:100D4000002008BD280000204C040000B20900006B
:100D50009410000015020000F60E000010B5134CB0
:100D60000121C903204600F0CBF90021204600F004
:100D7000A3F90021204600F08DF90021204600F063
:100D8000ADF90B4C1221204600F0BAF900212046A3
:100D900000F092F9FF218131204600F07BF900211B
:100DA000204600F09BF900F0CBFB10BD00000B408B
:100DB00000200B4010B50446FFF764FEA04201D4AA
:100DC000012010BD002010BD10B50446FFF75AFEEB
:100DD000001910BDF8B51E4C2069FFF7EBFF002885
:100DE00034D0FFF783FF46282CDB0121084600F0B2
:100DF000D5FE7D25ED002846FFF7E6FF6E00E06199
:100E00003046FFF7E1FF134F2062E069FFF7D2FFA2
:100E1000002804D0012210213846FFF7F5FC206A93
:100E2000FFF7C8FF0028F0D0002210213846FFF756
:100E3000EBFC2846FFF7C8FFE0613046FFF7C4FF30
:100E40002062E2E70448FFF7BFFF2061F8BD000021
:100E50000000002000200B40E503000070B5324C7C
:100E60006069FFF7A7FF00285DD0FFF733FFE16857
:100E7000884200DAE060A069401CA06114284ED1CD
:100E8000E06800212D2801DA217003E0962801DCBA
:100E900002222270BE2801DB01202070FF20493091
:100EA000A161E06021787D25ED00012904D00029B1
:100EB00011D0022925D030E06078002803D12846DF
:100EC000FFF782FF60606078022801D0012824D1FA
:100ED00000F024FF21E0607801280CD002280AD01D
:100EE000A068FFF767FF002803D00021012000F071
:100EF00055FEC8200EE0FF205F30FFF765FFA060C1
:100F00000BE06078022808D000F008FF6078002825
:100F100003D12846FFF758FF6060207860700720F3
:100F2000FFF752FF606170BD0000002010B500F0B7
:100F300011F910BD7047000010B5154881680029EF
:100F40000BD00168052903D00068062803D004E00F
:100F500000F04EF801E000F021F80E4C0021204690
:100F6000FFF7B9F900212046FFF7BEF9002120461E
:100F7000FFF7CFF908492046FFF7C9F901212046BC
:100F8000FFF7B2F901212046FFF7A5F910BD0000D7
:100F90001C01002000600740804F120070B5124C09
:100FA000606B616B4010C9104018A0640F4D0021A8
:100FB0002846FFF783FDAE15002231462846FFF78D
:100FC0008FFD00212846FFF7C1FDA06C81B22846A5
:100FD000FFF7BFFD012231462846FFF781FD0121C1
:100FE0002846FFF76BFD70BD1C0100200040034048
:100FF00010B52820FFF7E8FE1A4C2061E0680128B0
:1010000016DDE068401EE06000F010FE012808D008
:101010000021082000F02AF90021042000F026F920
:101020001CE00021102000F021F900210220F5E74A
:10103000062020600021012000F018F96420606281
:1010400096202062FA2000F093F8206A00F0A4F8BD
:101050000F20FFF7B9FEE0610220606000F0E6FDBE
:10106000E06210BD1C01002010B504490020886218
:1010700000F0E8FDFFF760FF10BD00001C0100203C
:1010800010B5034901208862FFF756FF10BD00002C
:101090001C01002070B5064C064D00229300E65856
:1010A000864201D1E9500422521C042AF6D370BDB5
:1010B00040000020FC00002070B5064C064D0022C8
:1010C0009300E658864201D1E9500422521C042ABA
:1010D000F6D370BD40000020EC00002070B5064C37
:1010E000064D00229300E658864201D1E9500422C1
:1010F000521C042AF6D370BD400000200C010020D1
:1011000070B5064C064D00229300E658864201D188
:10111000E9500422521C042AF6D370BD400000207E
:10112000DC0000200F2904D8034A89005050002019
:1011300070470020C0437047900000200F2904D85A
:10114000034A89005050002070470020C043704778
:101150005000002010B5054C00212046FFF7B8FCD8
:10116000401C81B22046FFF7F1FC10BD00E00640B4
:101170000146074A10B50B39914206D2401E81B292
:101180000448FFF7E6FC002010BD0020C04310BD5E
:10119000F57C000000E0064070B5094D0446A868E3
:1011A000074E001B82B2803E00213046FFF7C9FC8B
:1011B000A8680121001B82B23046FFF7C2FC70BD57
:1011C00080E0064010B500210148FFF7BFFC10BDCC
:1011D00000E006400A4A002908D0012908D0022967
:1011E00008D0032908D00020C0437047506004E0B5
:1011F000906002E0D06000E01061002070470000C5
:101200002C00002010B5184C2068022802D00428B9
:1012100012D023E00021082000F028F80021082047
:1012200000F024F80021082000F020F80021082018
:1012300000F01CF8042010E00021102000F016F847
:101240000021102000F012F80021102000F00EF80C
:101250000021102000F00AF802202060002100F098
:1012600005F8002010BD0000D0000020F8B55D4C4E
:101270000E46012900D127685B4D082826D006DCE0
:10128000012867D002280CD0042807D133E01028A9
:101290004AD0802873D0FF3801286FD00020C04387
:1012A000F8BD02200146206000225048FFF7ACFA4A
:1012B000012211462846FFF7EBFB00221146284683
:1012C000FFF7E6FB0122D103494828E0082000226D
:1012D000206011462846FFF7DBFB0022022143482D
:1012E000FFF792FA002201212846FFF7D1FB0122E5
:1012F000D1033F482BE004204103206000223C48FA
:10130000FFF782FA012200212846FFF7C1FB0022E5
:1013100001212846FFF7BCFB012202213348FFF7D9
:1013200073FAFFF74FFF40E01020206000220121F8
:101330002846FFF7ADFB01210022C9032C48FFF727
:1013400063FA002211462846FFF7A2FB42E0FFF7AE
:101350005BFA2AE00120C103206000222448FFF745
:1013600053FA002202212148FFF74EFA00221146CB
:101370002846FFF78DFB002213E000E018E08020F4
:101380000102206000221A48FFF73EFA00220221E3
:101390001648FFF739FA012200212846FFF778FBAB
:1013A000012201212846FFF773FB012E16D016E01B
:1013B000FF2001300022206011462846FFF768FB1D
:1013C000002201212846FFF763FB0122D1030848D0
:1013D000FFF71AFA012202210448B8E7276000202B
:1013E000F8BD0000D000002000E0064000200B40C7
:1013F00000000B4010B5FFF7B1FC9620FFF7B8FED8
:101400007820FFF7C9FE08210F48FFF78BFE0F4831
:1014100041688215114341608168114381600B4925
:1014200040390B6A07242407A3430B620B6AC405E7
:1014300023430B6201681143016000210120FFF783
:1014400015FF002010BD00002D0F0000404002409D
:1014500003484068002801D00020704701207047F1
:101460001C01002000F05AFA0720FFF7ADFC134CD6
:1014700060611348FFF7A8FC206100221021114889
:10148000FFF7C2F9FFF732FC2D2801DC00F09AFAD1
:1014900000F0ACFAFFF7E2FC6068FFF78BFC002875
:1014A00008D0FFF7D5FF002804D02078012801D10B
:1014B00000F088FAFFF78EFCEAE700000000002049
:1014C000E503000000200B4010B50620FEF7AAFF40
:1014D000022208210020FEF7BFFE02224021002048
:1014E000FEF7BAFE022280210020FEF7B5FE134C63
:1014F00003231A4602212046FEF77AFE0A212046DF
:10150000FEF788FE002203212046FEF763FE01223B
:1015100006212046FEF75EFE022207212046FEF746
:1015200059FE10212046FEF770FE01212046FEF7ED
:1015300043FE01212046FEF76FFE10BD0000014072
:1015400010B5FFF798F9FEF7E7FEFFF7B0F9FFF7E0
:10155000E7F900F003F900F0D3F800F0A3F800F089
:1015600007F800F03FF900F083F9FFF7ADFF10BD79
:10157000F0B5002785B03846012103970097019701
:10158000C903012302460297FEF738FF4348BD0016
:101590004159002933D001240026404840592042B7
:1015A00027D0039801222043039021463846FEF7B6
:1015B00053FE3B48A1B240590022FFF7E3F83848F8
:1015C000A1B240590222FFF705F93548A1B24059AE
:1015D0000122FFF7F7F8F9B2F0B2FEF727FE00207C
:1015E000694600960871C880032008726846FFF7B4
:1015F000B9F8012064000004761C8442CDD37F1C1E
:10160000042FC3D30120C4030399084237D0FF221B
:101610000132811A90422ED012DC10282BD008DC27
:10162000012831D002282FD0042832D0082826D112
:101630002FE020281FD040281DD080281FD11AE07D
:101640000F2212028B1A914215D009DCFF39491E74
:1016500011D0FF39FF39891E0DD00122920208E016
:1016600001210903591A06D001225203891A02D016
:101670005200914203D10620FFF704F920464000B2
:10168000A042C1D905B0F0BD0420FFF7FBF802204D
:10169000F5E70520FFF7F6F80820F0E7FC0000204A
:1016A00040000020F8B500261348B5004159002934
:1016B0001ED0012410484059204214D00122214656
:1016C0003046FEF7C9FD0D4FA1B278590022FFF751
:1016D00059F8A1B278590222FFF77CF8A1B27859E3
:1016E0000122FFF757F80120640000048442E1D38F
:1016F000761C042ED8D3F8BDEC000020400000205A
:10170000F8B500261348B500415900291ED0012420
:1017100010484059204214D0012221463046FEF79D
:101720009BFD0D4FA1B278590022FFF72BF8A1B213
:1017300078590022FFF74EF8A1B278590122FFF73D
:1017400041F80120640000048442E1D3761C042E99
:10175000D8D3F8BD0C01002040000020FEB50026C3
:1017600000220092012069460192885508780121E3
:10177000C007C00B49048843694649780123C9075B
:10178000890B084301218903FEF738FE1348B50091
:10179000415900291ED0012410484059204214D03C
:1017A000012221463046FEF757FD0D4FA1B2785970
:1017B0000222FFF70FF8A1B278590122FEF7EAFFE3
:1017C000A1B278590122FEF7DDFF01206400000478
:1017D0008442E1D3761C042EC2D3FEBDDC0000207F
:1017E0004000002070B5042288B011030020FEF7ED
:1017F00033FD012104220846FEF72EFDC72168466D
:1018000001822821418200240475FF2101310694C0
:101810008183164E04A93046FFF79EF9684604708E
:10182000062141800125057144718471C5710472DE
:1018300045723B24448169463046FFF759F96846B2
:101840000570448169463046FFF752F90121304660
:10185000FFF734F9012200213046FFF719F9012280
:1018600011463046FFF714F908B070BD00E006409D
:101870007FB5274C2046FEF727FD00212046FEF7C6
:1018800048FD01212046FEF739FD01212046FEF7E3
:101890002BFD1120FEF7F6FF00200290401E694646
:1018A0000880282048801B4DA4158C812846FFF70E
:1018B00053F901212846FFF7FCF821462846FFF797
:1018C000F3F80D20FEF7DEFF00212846FFF73EF972
:1018D000012221462846FFF703F90F4D69462846A5
:1018E000FFF73AF901212846FFF7E3F82146284699
:1018F000FFF7DAF80E20FEF7C5FF00212846FFF7B4
:1019000025F9012221462846FFF7EAF87FBD0000AD
:1019100000600740004003400040074070B5FFF7FB
:1019200069FD1F4C7820206207211E48FFF706FC46
:1019300007211D48FFF7F6FB1C48016880229143F0
:10194000016000211A48FFF745FC1A4D0021284686
:10195000FEF7C1FC00212846FEF7C6FC0021284600
:10196000FEF7D7FC01211448FFF734FC134D00218A
:101970002846FFF7A3F80022A9152846FFF7B0F87C
:1019800000212846FFF7E2F802210D48FFF722FC6C
:1019900000202060606000F089F9002070BD000028
:1019A0001C0100208110000069100000404002402E
:1019B000111D000000600740290C0000004003409A
:1019C000C11C000008480168022909D041680229A9
:1019D00006D0022101600121416081600020704732
:1019E0000020C043704700001C01002070B5644C0B
:1019F00020680300FFF7FCF8070909050AC38EA950
:101A0000C300002060610320206070BD6069002871
:101A10006DD06069FFF7CEF90028F6D00520206070
:101A20006420E0605748416880221143416081682A
:101A30001143816053494039CB6907252D07AB43DA
:101A4000CB61CB6905062B43CB6101681143016073
:101A50004D48FFF7B9F9A0612820FFF7B5F92061DB
:101A600000F0E4F8E0627D200001FFF781FBC82070
:101A7000FFF792FB454D00212846FFF71FF8AE15F2
:101A8000002231462846FFF72BF800212846FFF7B1
:101A90005DF83F492846FFF75CF8012231462846A9
:101AA000FFF71EF801212846FFF708F8E06A012831
:101AB0002DD000210420FFF7D9FB364C0021204611
:101AC000FEF709FC00212046FEF70EFC002120460F
:101AD000FEF71FFC30492046FEF719FC0121204685
:101AE000FEF702FC01212046FEF7F5FB70BD6420E5
:101AF000FFF76AF960617D20C000FFF739FBC8205D
:101B0000FFF74AFB00218020FFF7B0FB70BD0021EA
:101B10000220D0E7A069FFF74DF9002804D0012189
:101B2000084600F03BF870BD2069FFF743F9002834
:101B3000F9D000F07BF8E16A884201D1FFF762FB3F
:101B40002820FFF741F9206170BDE069FFF732F905
:101B50000028F9D0206A616A8842206A01DD401EAF
:101B600004E0616A884205DA206A401C2062206A2B
:101B7000FFF712FB0F20FFF727F9E06170BDFEE7CA
:101B80001C01002040400240E81C000000400740CB
:101B9000307500000060074000171100F8B51F4CB9
:101BA0000D46064600212046FEF788FF0022A115BB
:101BB0002046FEF795FF00212046FEF7C7FF184894
:101BC0000168802291430160164C00212046FEF7F7
:101BD00082FB00212046FEF787FB00212046FEF70E
:101BE00098FB114C0027A7606760002E07D0012EDC
:101BF00002D00020C043F8BD0021012001E00021F7
:101C00008020FFF733FB002D05D00120012D20603F
:101C1000EFD10020F8BD2760FBE700000040034043
:101C200040400240006007401C01002010B58021A8
:101C30000348FEF7E4FD002800D0012010BD00009D
:101C400000200B4070B5164D2846FEF746FF154C98
:101C50004008206300212846FEF730FFAE15002221
:101C600031462846FEF73CFF00212846FEF76EFF6E
:101C70000D492846FEF76DFF012231462846FEF742
:101C80002FFF01212846FEF719FF606B002805D0C1
:101C9000606B216B40184010606370BD206BFBE7E8
:101CA000004007401C01002030750000034800215F
:101CB000C164C16341630163704700001C010020DF
:101CC00070B510490120C8640F4C00212046FEF772
:101CD000F5FEA515002229462046FEF701FF00214A
:101CE0002046FEF733FF09492046FEF732FF012266
:101CF00029462046FEF7F4FE01212046FEF7DEFECF
:101D000070BD00001C01002000400740307500003D
:101D100010B501210846FFF741FF10BD01492820F9
:101D2000486270471C01002001010101010101010D
:101D3000010101010C020200080010001000001057
:101D40000400040000000B4000200B4000000000D5
:101D50000000000000000000000000000010004033
:101D60000000100006000000200006008C1D00008E
:101D700000000020DC0000000A0C0000681E0000CB
:101D8000DC000020940200001A0C00000202000097
:101D900000000000000000004801000000000000FA
:101DA0000000000000000000000000000000000033
:101DB000000000000000000000000000350F0000DF
:101DC000350F0000350F0000350F000000000B40FC
:101DD00000200B400000000000000000350F000054
:101DE000350F0000350F0000350F0000350F0000E3
:101DF000350F0000350F0000350F0000350F0000D3
:101E0000350F0000350F0000350F0000350F0000C2
:101E1000350F0000350F0000350F0000350F0000B2
:101E2000350F0000350F0000350F0000350F0000A2
:101E3000350F0000350F0000350F0000350F000092
:101E4000350F0000350F0000350F0000350F000082
:101E5000350F0000350F0000350F000001000000B5
:081E600000000000005A6202BC
:04000005000000AD4A
:00000001FF
